{
  "_format": "hh-sol-artifact-1",
  "contractName": "Lock",
  "sourceName": "contracts/Lock.sol",
  "abi": [
    {
      "inputs": [
        {
          "internalType": "address",
          "name": "tokenAddress",
          "type": "address"
        }
      ],
      "stateMutability": "nonpayable",
      "type": "constructor"
    },
    {
      "inputs": [
        {
          "internalType": "uint256",
          "name": "amount",
          "type": "uint256"
        }
      ],
      "name": "lockTokens",
      "outputs": [],
      "stateMutability": "nonpayable",
      "type": "function"
    },
    {
      "inputs": [],
      "name": "lockerCount",
      "outputs": [
        {
          "internalType": "uint256",
          "name": "",
          "type": "uint256"
        }
      ],
      "stateMutability": "view",
      "type": "function"
    },
    {
      "inputs": [
        {
          "internalType": "address",
          "name": "",
          "type": "address"
        }
      ],
      "name": "lockers",
      "outputs": [
        {
          "internalType": "uint256",
          "name": "",
          "type": "uint256"
        }
      ],
      "stateMutability": "view",
      "type": "function"
    },
    {
      "inputs": [],
      "name": "totalLocked",
      "outputs": [
        {
          "internalType": "uint256",
          "name": "",
          "type": "uint256"
        }
      ],
      "stateMutability": "view",
      "type": "function"
    },
    {
      "inputs": [],
      "name": "withdrawTokens",
      "outputs": [],
      "stateMutability": "nonpayable",
      "type": "function"
    }
  ],
  "bytecode": "0x608060405234801561001057600080fd5b50604051610b10380380610b108339818101604052810190610032919061008d565b806000806101000a81548173ffffffffffffffffffffffffffffffffffffffff021916908373ffffffffffffffffffffffffffffffffffffffff160217905550506100ff565b600081519050610087816100e8565b92915050565b60006020828403121561009f57600080fd5b60006100ad84828501610078565b91505092915050565b60006100c1826100c8565b9050919050565b600073ffffffffffffffffffffffffffffffffffffffff82169050919050565b6100f1816100b6565b81146100fc57600080fd5b50565b610a028061010e6000396000f3fe608060405234801561001057600080fd5b50600436106100575760003560e01c80632c8e7a211461005c578063568914121461008c5780636e27d889146100aa5780638d8f2adb146100c6578063ccd96eb6146100d0575b600080fd5b61007660048036038101906100719190610584565b6100ee565b6040516100839190610746565b60405180910390f35b610094610106565b6040516100a19190610746565b60405180910390f35b6100c460048036038101906100bf91906105d6565b61010c565b005b6100ce610316565b005b6100d861053f565b6040516100e59190610746565b60405180910390f35b60036020528060005260406000206000915090505481565b60025481565b6000811161014f576040517f08c379a0000000000000000000000000000000000000000000000000000000008152600401610146906106e6565b60405180910390fd5b6000600360003373ffffffffffffffffffffffffffffffffffffffff1673ffffffffffffffffffffffffffffffffffffffff16815260200190815260200160002054116101af57600160008154809291906101a99061086e565b91905055505b80600260008282546101c19190610772565b9250508190555080600360003373ffffffffffffffffffffffffffffffffffffffff1673ffffffffffffffffffffffffffffffffffffffff16815260200190815260200160002060008282546102179190610772565b9250508190555060008060009054906101000a900473ffffffffffffffffffffffffffffffffffffffff1673ffffffffffffffffffffffffffffffffffffffff166323b872dd3330856040518463ffffffff1660e01b815260040161027e93929190610686565b602060405180830381600087803b15801561029857600080fd5b505af11580156102ac573d6000803e3d6000fd5b505050506040513d601f19601f820116820180604052508101906102d091906105ad565b905080610312576040517f08c379a000000000000000000000000000000000000000000000000000000000815260040161030990610726565b60405180910390fd5b5050565b6000600360003373ffffffffffffffffffffffffffffffffffffffff1673ffffffffffffffffffffffffffffffffffffffff1681526020019081526020016000205411610398576040517f08c379a000000000000000000000000000000000000000000000000000000000815260040161038f90610706565b60405180910390fd5b6000600360003373ffffffffffffffffffffffffffffffffffffffff1673ffffffffffffffffffffffffffffffffffffffff168152602001908152602001600020549050600360003373ffffffffffffffffffffffffffffffffffffffff1673ffffffffffffffffffffffffffffffffffffffff16815260200190815260200160002060009055806002600082825461043191906107c8565b925050819055506001600081548092919061044b90610844565b919050555060008054906101000a900473ffffffffffffffffffffffffffffffffffffffff1673ffffffffffffffffffffffffffffffffffffffff1663a9059cbb33836040518363ffffffff1660e01b81526004016104ab9291906106bd565b602060405180830381600087803b1580156104c557600080fd5b505af11580156104d9573d6000803e3d6000fd5b505050506040513d601f19601f820116820180604052508101906104fd91906105ad565b61053c576040517f08c379a000000000000000000000000000000000000000000000000000000000815260040161053390610726565b60405180910390fd5b50565b60015481565b60008135905061055481610987565b92915050565b6000815190506105698161099e565b92915050565b60008135905061057e816109b5565b92915050565b60006020828403121561059657600080fd5b60006105a484828501610545565b91505092915050565b6000602082840312156105bf57600080fd5b60006105cd8482850161055a565b91505092915050565b6000602082840312156105e857600080fd5b60006105f68482850161056f565b91505092915050565b610608816107fc565b82525050565b600061061b602383610761565b9150610626826108e6565b604082019050919050565b600061063e601183610761565b915061064982610935565b602082019050919050565b6000610661601083610761565b915061066c8261095e565b602082019050919050565b6106808161083a565b82525050565b600060608201905061069b60008301866105ff565b6106a860208301856105ff565b6106b56040830184610677565b949350505050565b60006040820190506106d260008301856105ff565b6106df6020830184610677565b9392505050565b600060208201905081810360008301526106ff8161060e565b9050919050565b6000602082019050818103600083015261071f81610631565b9050919050565b6000602082019050818103600083015261073f81610654565b9050919050565b600060208201905061075b6000830184610677565b92915050565b600082825260208201905092915050565b600061077d8261083a565b91506107888361083a565b9250827fffffffffffffffffffffffffffffffffffffffffffffffffffffffffffffffff038211156107bd576107bc6108b7565b5b828201905092915050565b60006107d38261083a565b91506107de8361083a565b9250828210156107f1576107f06108b7565b5b828203905092915050565b60006108078261081a565b9050919050565b60008115159050919050565b600073ffffffffffffffffffffffffffffffffffffffff82169050919050565b6000819050919050565b600061084f8261083a565b91506000821415610863576108626108b7565b5b600182039050919050565b60006108798261083a565b91507fffffffffffffffffffffffffffffffffffffffffffffffffffffffffffffffff8214156108ac576108ab6108b7565b5b600182019050919050565b7f4e487b7100000000000000000000000000000000000000000000000000000000600052601160045260246000fd5b7f546f6b656e20616d6f756e74206d75737420626520626967676572207468616e60008201527f20302e0000000000000000000000000000000000000000000000000000000000602082015250565b7f4e6f7420656e6f75676820746f6b656e2e000000000000000000000000000000600082015250565b7f5472616e73666572206661696c65642e00000000000000000000000000000000600082015250565b610990816107fc565b811461099b57600080fd5b50565b6109a78161080e565b81146109b257600080fd5b50565b6109be8161083a565b81146109c957600080fd5b5056fea2646970667358221220af21d0927ca07cf941a7a48d40b4d7006804ff48dfa2e5ab40079bf0c51ed04464736f6c63430008020033",
  "linkReferences": {},
  "deployedLinkReferences": {}
}