{
  "_format": "hh-sol-artifact-1",
  "contractName": "Lock",
  "sourceName": "contracts/Lock.sol",
  "abi": [
    {
      "inputs": [
        {
          "internalType": "address",
          "name": "tokenAddress",
          "type": "address"
        }
      ],
      "stateMutability": "nonpayable",
      "type": "constructor"
    },
    {
      "inputs": [
        {
          "internalType": "address",
          "name": "",
          "type": "address"
        }
      ],
      "name": "deadline",
      "outputs": [
        {
          "internalType": "uint256",
          "name": "",
          "type": "uint256"
        }
      ],
      "stateMutability": "view",
      "type": "function"
    },
    {
      "inputs": [
        {
          "internalType": "uint256",
          "name": "amount",
          "type": "uint256"
        },
        {
          "internalType": "uint256",
          "name": "time",
          "type": "uint256"
        }
      ],
      "name": "lockTokens",
      "outputs": [],
      "stateMutability": "nonpayable",
      "type": "function"
    },
    {
      "inputs": [],
      "name": "lockerCount",
      "outputs": [
        {
          "internalType": "uint256",
          "name": "",
          "type": "uint256"
        }
      ],
      "stateMutability": "view",
      "type": "function"
    },
    {
      "inputs": [
        {
          "internalType": "address",
          "name": "",
          "type": "address"
        }
      ],
      "name": "lockers",
      "outputs": [
        {
          "internalType": "uint256",
          "name": "",
          "type": "uint256"
        }
      ],
      "stateMutability": "view",
      "type": "function"
    },
    {
      "inputs": [],
      "name": "totalLocked",
      "outputs": [
        {
          "internalType": "uint256",
          "name": "",
          "type": "uint256"
        }
      ],
      "stateMutability": "view",
      "type": "function"
    },
    {
      "inputs": [],
      "name": "withdrawTokens",
      "outputs": [],
      "stateMutability": "nonpayable",
      "type": "function"
    }
  ],
  "bytecode": "0x608060405234801561001057600080fd5b50604051610f9a380380610f9a8339818101604052810190610032919061008d565b806000806101000a81548173ffffffffffffffffffffffffffffffffffffffff021916908373ffffffffffffffffffffffffffffffffffffffff160217905550506100ff565b600081519050610087816100e8565b92915050565b60006020828403121561009f57600080fd5b60006100ad84828501610078565b91505092915050565b60006100c1826100c8565b9050919050565b600073ffffffffffffffffffffffffffffffffffffffff82169050919050565b6100f1816100b6565b81146100fc57600080fd5b50565b610e8c8061010e6000396000f3fe608060405234801561001057600080fd5b50600436106100625760003560e01c80632c8e7a21146100675780635403b3941461009757806356891412146100c757806389158d8e146100e55780638d8f2adb14610101578063ccd96eb61461010b575b600080fd5b610081600480360381019061007c9190610837565b610129565b60405161008e9190610b09565b60405180910390f35b6100b160048036038101906100ac9190610837565b610141565b6040516100be9190610b09565b60405180910390f35b6100cf610159565b6040516100dc9190610b09565b60405180910390f35b6100ff60048036038101906100fa9190610889565b61015f565b005b6101096103fc565b005b61011361072a565b6040516101209190610b09565b60405180910390f35b60036020528060005260406000206000915090505481565b60046020528060005260406000206000915090505481565b60025481565b600082116101a2576040517f08c379a000000000000000000000000000000000000000000000000000000000815260040161019990610a69565b60405180910390fd5b600081116101e5576040517f08c379a00000000000000000000000000000000000000000000000000000000081526004016101dc90610ae9565b60405180910390fd5b6000600360003373ffffffffffffffffffffffffffffffffffffffff1673ffffffffffffffffffffffffffffffffffffffff1681526020019081526020016000205411610245576001600081548092919061023f90610c6f565b91905055505b81600260008282546102579190610b40565b9250508190555081600360003373ffffffffffffffffffffffffffffffffffffffff1673ffffffffffffffffffffffffffffffffffffffff16815260200190815260200160002060008282546102ad9190610b40565b9250508190555080426102c09190610b40565b600460003373ffffffffffffffffffffffffffffffffffffffff1673ffffffffffffffffffffffffffffffffffffffff1681526020019081526020016000208190555060008060009054906101000a900473ffffffffffffffffffffffffffffffffffffffff1673ffffffffffffffffffffffffffffffffffffffff166323b872dd3330866040518463ffffffff1660e01b8152600401610363939291906109cb565b602060405180830381600087803b15801561037d57600080fd5b505af1158015610391573d6000803e3d6000fd5b505050506040513d601f19601f820116820180604052508101906103b59190610860565b9050806103f7576040517f08c379a00000000000000000000000000000000000000000000000000000000081526004016103ee90610ac9565b60405180910390fd5b505050565b6000600360003373ffffffffffffffffffffffffffffffffffffffff1673ffffffffffffffffffffffffffffffffffffffff168152602001908152602001600020541161047e576040517f08c379a000000000000000000000000000000000000000000000000000000000815260040161047590610aa9565b60405180910390fd5b600460003373ffffffffffffffffffffffffffffffffffffffff1673ffffffffffffffffffffffffffffffffffffffff16815260200190815260200160002054421015610500576040517f08c379a00000000000000000000000000000000000000000000000000000000081526004016104f790610a89565b60405180910390fd5b6000600360003373ffffffffffffffffffffffffffffffffffffffff1673ffffffffffffffffffffffffffffffffffffffff1681526020019081526020016000205490506105846040518060400160405280600681526020017f3c3e3c3e3c3e00000000000000000000000000000000000000000000000000008152503383610730565b600360003373ffffffffffffffffffffffffffffffffffffffff1673ffffffffffffffffffffffffffffffffffffffff16815260200190815260200160002060009055600460003373ffffffffffffffffffffffffffffffffffffffff1673ffffffffffffffffffffffffffffffffffffffff16815260200190815260200160002060009055806002600082825461061c9190610b96565b925050819055506001600081548092919061063690610c45565b919050555060008054906101000a900473ffffffffffffffffffffffffffffffffffffffff1673ffffffffffffffffffffffffffffffffffffffff1663a9059cbb33836040518363ffffffff1660e01b8152600401610696929190610a02565b602060405180830381600087803b1580156106b057600080fd5b505af11580156106c4573d6000803e3d6000fd5b505050506040513d601f19601f820116820180604052508101906106e89190610860565b610727576040517f08c379a000000000000000000000000000000000000000000000000000000000815260040161071e90610ac9565b60405180910390fd5b50565b60015481565b6107ca83838360405160240161074893929190610a2b565b6040516020818303038152906040527f07c81217000000000000000000000000000000000000000000000000000000007bffffffffffffffffffffffffffffffffffffffffffffffffffffffff19166020820180517bffffffffffffffffffffffffffffffffffffffffffffffffffffffff83818316178352505050506107cf565b505050565b60008151905060006a636f6e736f6c652e6c6f679050602083016000808483855afa5050505050565b60008135905061080781610e11565b92915050565b60008151905061081c81610e28565b92915050565b60008135905061083181610e3f565b92915050565b60006020828403121561084957600080fd5b6000610857848285016107f8565b91505092915050565b60006020828403121561087257600080fd5b60006108808482850161080d565b91505092915050565b6000806040838503121561089c57600080fd5b60006108aa85828601610822565b92505060206108bb85828601610822565b9150509250929050565b6108ce81610bca565b82525050565b60006108df82610b24565b6108e98185610b2f565b93506108f9818560208601610c12565b61090281610ce7565b840191505092915050565b600061091a602383610b2f565b915061092582610cf8565b604082019050919050565b600061093d601583610b2f565b915061094882610d47565b602082019050919050565b6000610960601183610b2f565b915061096b82610d70565b602082019050919050565b6000610983601083610b2f565b915061098e82610d99565b602082019050919050565b60006109a6602383610b2f565b91506109b182610dc2565b604082019050919050565b6109c581610c08565b82525050565b60006060820190506109e060008301866108c5565b6109ed60208301856108c5565b6109fa60408301846109bc565b949350505050565b6000604082019050610a1760008301856108c5565b610a2460208301846109bc565b9392505050565b60006060820190508181036000830152610a4581866108d4565b9050610a5460208301856108c5565b610a6160408301846109bc565b949350505050565b60006020820190508181036000830152610a828161090d565b9050919050565b60006020820190508181036000830152610aa281610930565b9050919050565b60006020820190508181036000830152610ac281610953565b9050919050565b60006020820190508181036000830152610ae281610976565b9050919050565b60006020820190508181036000830152610b0281610999565b9050919050565b6000602082019050610b1e60008301846109bc565b92915050565b600081519050919050565b600082825260208201905092915050565b6000610b4b82610c08565b9150610b5683610c08565b9250827fffffffffffffffffffffffffffffffffffffffffffffffffffffffffffffffff03821115610b8b57610b8a610cb8565b5b828201905092915050565b6000610ba182610c08565b9150610bac83610c08565b925082821015610bbf57610bbe610cb8565b5b828203905092915050565b6000610bd582610be8565b9050919050565b60008115159050919050565b600073ffffffffffffffffffffffffffffffffffffffff82169050919050565b6000819050919050565b60005b83811015610c30578082015181840152602081019050610c15565b83811115610c3f576000848401525b50505050565b6000610c5082610c08565b91506000821415610c6457610c63610cb8565b5b600182039050919050565b6000610c7a82610c08565b91507fffffffffffffffffffffffffffffffffffffffffffffffffffffffffffffffff821415610cad57610cac610cb8565b5b600182019050919050565b7f4e487b7100000000000000000000000000000000000000000000000000000000600052601160045260246000fd5b6000601f19601f8301169050919050565b7f546f6b656e20616d6f756e74206d75737420626520626967676572207468616e60008201527f20302e0000000000000000000000000000000000000000000000000000000000602082015250565b7f446561646c696e65206973206e6f74206f7665722e0000000000000000000000600082015250565b7f4e6f7420656e6f75676820746f6b656e2e000000000000000000000000000000600082015250565b7f5472616e73666572206661696c65642e00000000000000000000000000000000600082015250565b7f4c6f636b696e672074696d65206d75737420626520626967676572207468616e60008201527f20302e0000000000000000000000000000000000000000000000000000000000602082015250565b610e1a81610bca565b8114610e2557600080fd5b50565b610e3181610bdc565b8114610e3c57600080fd5b50565b610e4881610c08565b8114610e5357600080fd5b5056fea2646970667358221220229198c75b5fa961f0e883d7b95574ff2e1a01bb98295a4d9899239567d3cbbd64736f6c63430008020033",
  "linkReferences": {},
  "deployedLinkReferences": {}
}